******************************************************************************
                  TI ARM Linker PC v18.1.3                     
******************************************************************************
>> Linked Wed Oct 23 15:26:25 2019

OUTPUT FILE NAME:   <Lab 8.out>
ENTRY POINT SYMBOL: "_c_int00_noargs"  address: 00002f11


MEMORY CONFIGURATION

         name            origin    length      used     unused   attr    fill
----------------------  --------  ---------  --------  --------  ----  --------
  MAIN                  00000000   00040000  000033c5  0003cc3b  R  X
  INFO                  00200000   00004000  00000000  00004000  R  X
  SRAM_CODE             01000000   00010000  000009bc  0000f644  RW X
  SRAM_DATA             20000000   00010000  000009bc  0000f644  RW  


SEGMENT ALLOCATION MAP

run origin  load origin   length   init length attrs members
----------  ----------- ---------- ----------- ----- -------
00000000    00000000    000033c8   000033c8    r-x
  00000000    00000000    000000e4   000000e4    r-- .intvecs
  000000e4    000000e4    00003178   00003178    r-x .text
  0000325c    0000325c    00000101   00000101    r-- .const
  00003360    00003360    00000068   00000068    r-- .cinit
20000000    20000000    000007bc   00000000    rw-
  20000000    20000000    00000400   00000000    rw- .sysmem
  20000400    20000400    000001f4   00000000    rw- .data
  200005f4    200005f4    000001c8   00000000    rw- .bss
2000fe00    2000fe00    00000200   00000000    rw-
  2000fe00    2000fe00    00000200   00000000    rw- .stack


SECTION ALLOCATION MAP

 output                                  attributes/
section   page    origin      length       input sections
--------  ----  ----------  ----------   ----------------
.intvecs   0    00000000    000000e4     
                  00000000    000000e4     startup_msp432p401r_ccs.obj (.intvecs:retain)

.text      0    000000e4    00003178     
                  000000e4    00000a5e     rtsv7M4_T_le_v4SPD16_eabi.lib : _printfi.c.obj (.text:__TI_printfi)
                  00000b42    00000002                                   : _lock.c.obj (.text:_nop)
                  00000b44    00000458     main (4).obj (.text)
                  00000f9c    00000334     system_msp432p401r.obj (.text)
                  000012d0    00000270     rtsv7M4_T_le_v4SPD16_eabi.lib : _printfi.c.obj (.text:_pconv_a)
                  00001540    000001d0                                   : _printfi.c.obj (.text:_pconv_g)
                  00001710    000001b6                                   : fd_add_t2.asm.obj (.text)
                  000018c6    00000002                                   : div0.asm.obj (.text)
                  000018c8    0000013c                                   : _printfi.c.obj (.text:_pconv_e)
                  00001a04    00000136                                   : fd_div_t2.asm.obj (.text)
                  00001b3a    00000002     --HOLE-- [fill = 0]
                  00001b3c    00000120                                   : _printfi.c.obj (.text:fcvt)
                  00001c5c    00000114                                   : fputs.c.obj (.text:fputs)
                  00001d70    00000110                                   : s_scalbn.c.obj (.text:scalbn)
                  00001e80    000000fc                                   : fd_mul_t2.asm.obj (.text)
                  00001f7c    000000dc                                   : setvbuf.c.obj (.text:setvbuf)
                  00002058    000000d8                                   : memory.c.obj (.text:free)
                  00002130    000000b1                                   : _printfi.c.obj (.text:_ltostr)
                  000021e1    00000001     --HOLE-- [fill = 0]
                  000021e2    0000009c                                   : memcpy_t2.asm.obj (.text)
                  0000227e    00000096                                   : ull_div_t2.asm.obj (.text)
                  00002314    0000008c                                   : fputc.c.obj (.text:fputc)
                  000023a0    00000086                                   : fd_cmp_t2.asm.obj (.text:__aeabi_cdcmple)
                  00002426    00000086                                   : fd_cmp_t2.asm.obj (.text:__aeabi_cdrcmple)
                  000024ac    0000007a                                   : memset_t2.asm.obj (.text)
                  00002526    00000002     --HOLE-- [fill = 0]
                  00002528    00000078                                   : memory.c.obj (.text:malloc)
                  000025a0    00000074                                   : fclose.c.obj (.text:__TI_closefile)
                  00002614    0000006e                                   : _printfi.c.obj (.text:_mcpy)
                  00002682    0000006e                                   : fd_tos_t2.asm.obj (.text)
                  000026f0    00000068                                   : hostlseek.c.obj (.text:HOSTlseek)
                  00002758    00000068                                   : hostrename.c.obj (.text:HOSTrename)
                  000027c0    00000068                                   : copy_decompress_lzss.c.obj (.text:decompress:lzss:__TI_decompress_lzss)
                  00002828    00000068                                   : printf.c.obj (.text:printf)
                  00002890    00000064                                   : s_frexp.c.obj (.text:frexp)
                  000028f4    00000064                                   : fseek.c.obj (.text:fseek)
                  00002958    00000062                                   : _io_perm.c.obj (.text:__TI_wrt_ok)
                  000029ba    00000002     --HOLE-- [fill = 0]
                  000029bc    00000060                                   : hostopen.c.obj (.text:HOSTopen)
                  00002a1c    0000005c                                   : close.c.obj (.text:close)
                  00002a78    00000058                                   : hostread.c.obj (.text:HOSTread)
                  00002ad0    00000058                                   : hostwrite.c.obj (.text:HOSTwrite)
                  00002b28    00000056                                   : _printfi.c.obj (.text:_pconv_f)
                  00002b7e    00000054                                   : ltoa.c.obj (.text:ltoa)
                  00002bd2    00000052                                   : _printfi.c.obj (.text:_ecpy)
                  00002c24    0000004c                                   : fflush.c.obj (.text:__TI_doflush)
                  00002c70    0000004c                                   : atoi.c.obj (.text:atoi)
                  00002cbc    00000048                                   : exit.c.obj (.text:exit)
                  00002d04    00000048                                   : fd_toi_t2.asm.obj (.text)
                  00002d4c    00000044                                   : hostclose.c.obj (.text:HOSTclose)
                  00002d90    00000044                                   : hostunlink.c.obj (.text:HOSTunlink)
                  00002dd4    00000044                                   : autoinit.c.obj (.text:__TI_auto_init_nobinit_nopinit:__TI_auto_init_nobinit_nopinit)
                  00002e18    00000044                                   : getdevice.c.obj (.text:getdevice)
                  00002e5c    0000003e                                   : _printfi.c.obj (.text:_fcpy)
                  00002e9a    00000002     --HOLE-- [fill = 0]
                  00002e9c    0000003c                                   : memory.c.obj (.text:minsert)
                  00002ed8    00000038                                   : trgmsg.c.obj (.text:__TI_writemsg)
                  00002f10    00000038                                   : boot_cortex_m.c.obj (.text:_c_int00_noargs:_c_int00_noargs)
                  00002f48    00000038                                   : memory.c.obj (.text:minit)
                  00002f80    00000038                                   : fs_tod_t2.asm.obj (.text)
                  00002fb8    00000036                                   : strncpy.c.obj (.text:strncpy)
                  00002fee    00000002     --HOLE-- [fill = 0]
                  00002ff0    00000034                                   : fopen.c.obj (.text:__TI_cleanup)
                  00003024    00000034                                   : trgmsg.c.obj (.text:__TI_readmsg)
                  00003058    00000030                                   : getdevice.c.obj (.text:finddevice)
                  00003088    0000002e                                   : i_tofd_t2.asm.obj (.text)
                  000030b6    00000002     --HOLE-- [fill = 0]
                  000030b8    0000002c                                   : unlink.c.obj (.text:unlink)
                  000030e4    00000028                                   : lseek.c.obj (.text:lseek)
                  0000310c    00000028                                   : memory.c.obj (.text:mremove)
                  00003134    00000028                                   : write.c.obj (.text:write)
                  0000315c    00000020                                   : memchr.c.obj (.text:memchr)
                  0000317c    0000001c                                   : memccpy.c.obj (.text:memccpy)
                  00003198    00000018                                   : strcmp.c.obj (.text:strcmp)
                  000031b0    00000016                                   : strchr.c.obj (.text:strchr)
                  000031c6    00000014                                   : s_copysign.c.obj (.text:copysign)
                  000031da    00000014                                   : strcpy.c.obj (.text:strcpy)
                  000031ee    00000014                                   : strlen.c.obj (.text:strlen)
                  00003202    00000012                                   : copy_zero_init.c.obj (.text:decompress:ZI:__TI_zero_init_nomemset:__TI_zero_init_nomemset)
                  00003214    00000012                                   : wcslen.c.obj (.text:wcslen)
                  00003226    0000000e                                   : copy_decompress_none.c.obj (.text:decompress:none:__TI_decompress_none)
                  00003234    0000000e     startup_msp432p401r_ccs.obj (.text)
                  00003242    00000002     --HOLE-- [fill = 0]
                  00003244    00000008     rtsv7M4_T_le_v4SPD16_eabi.lib : errno.c.obj (.text:__aeabi_errno_addr)
                  0000324c    00000004                                   : printf.c.obj (.text:_outc)
                  00003250    00000004                                   : printf.c.obj (.text:_outs)
                  00003254    00000004                                   : pre_init.c.obj (.text:_system_pre_init)
                  00003258    00000004                                   : exit.c.obj (.text:abort:abort)

.const     0    0000325c    00000101     
                  0000325c    00000101     rtsv7M4_T_le_v4SPD16_eabi.lib : ctype.c.obj (.const:.string:_ctypes_)

.cinit     0    00003360    00000068     
                  00003360    00000041     (.cinit..data.load) [load image, compression = lzss]
                  000033a1    00000003     --HOLE-- [fill = 0]
                  000033a4    0000000c     (__TI_handler_table)
                  000033b0    00000008     (.cinit..bss.load) [load image, compression = zero_init]
                  000033b8    00000010     (__TI_cinit_table)

.init_array 
*          0    00000000    00000000     UNINITIALIZED

.binit     0    00000000    00000000     

.sysmem    0    20000000    00000400     UNINITIALIZED
                  20000000    00000008     rtsv7M4_T_le_v4SPD16_eabi.lib : memory.c.obj (.sysmem)
                  20000008    000003f8     --HOLE--

.data      0    20000400    000001f4     UNINITIALIZED
                  20000400    000000f0     rtsv7M4_T_le_v4SPD16_eabi.lib : defs.c.obj (.data:_ftable)
                  200004f0    00000078                                   : write.c.obj (.data:_device)
                  20000568    00000050                                   : write.c.obj (.data:_stream)
                  200005b8    00000010                                   : defs.c.obj (.data)
                  200005c8    0000000c                                   : exit.c.obj (.data:$O1$$)
                  200005d4    0000000c                                   : memory.c.obj (.data:$O1$$)
                  200005e0    00000008                                   : _lock.c.obj (.data:$O1$$)
                  200005e8    00000004     main (4).obj (.data)
                  200005ec    00000004     rtsv7M4_T_le_v4SPD16_eabi.lib : errno.c.obj (.data)
                  200005f0    00000004     system_msp432p401r.obj (.data)

.bss       0    200005f4    000001c8     UNINITIALIZED
                  200005f4    00000120     rtsv7M4_T_le_v4SPD16_eabi.lib : trgmsg.c.obj (.bss:_CIOBUF_)
                  20000714    000000a0     (.common:__TI_tmpnams)
                  200007b4    00000008     (.common:parmbuf)

.stack     0    2000fe00    00000200     UNINITIALIZED
                  2000fe00    00000004     rtsv7M4_T_le_v4SPD16_eabi.lib : boot_cortex_m.c.obj (.stack)
                  2000fe04    000001fc     --HOLE--

MODULE SUMMARY

       Module                        code    ro data   rw data
       ------                        ----    -------   -------
    .\
       main (4).obj                  1112    0         8      
       system_msp432p401r.obj        820     0         8      
       startup_msp432p401r_ccs.obj   14      228       0      
    +--+-----------------------------+-------+---------+---------+
       Total:                        1946    228       16     
                                                              
    C:\ti\ccsv8\tools\compiler\ti-cgt-arm_18.1.3.LTS\lib\rtsv7M4_T_le_v4SPD16_eabi.lib
       _printfi.c.obj                4863    0         0      
       defs.c.obj                    0       0         832    
       trgmsg.c.obj                  108     0         576    
       memory.c.obj                  492     0         24     
       write.c.obj                   40      0         400    
       fd_add_t2.asm.obj             438     0         0      
       fd_div_t2.asm.obj             310     0         0      
       fputs.c.obj                   276     0         0      
       s_scalbn.c.obj                272     0         0      
       fd_cmp_t2.asm.obj             268     0         0      
       ctype.c.obj                   0       257       0      
       fd_mul_t2.asm.obj             252     0         0      
       setvbuf.c.obj                 220     0         0      
       memcpy_t2.asm.obj             156     0         0      
       ull_div_t2.asm.obj            150     0         0      
       fputc.c.obj                   140     0         0      
       memset_t2.asm.obj             122     0         0      
       fclose.c.obj                  116     0         0      
       getdevice.c.obj               116     0         0      
       hostopen.c.obj                96      0         16     
       printf.c.obj                  112     0         0      
       fd_tos_t2.asm.obj             110     0         0      
       copy_decompress_lzss.c.obj    104     0         0      
       hostlseek.c.obj               104     0         0      
       hostrename.c.obj              104     0         0      
       exit.c.obj                    76      0         24     
       fseek.c.obj                   100     0         0      
       s_frexp.c.obj                 100     0         0      
       _io_perm.c.obj                98      0         0      
       close.c.obj                   92      0         0      
       hostread.c.obj                88      0         0      
       hostwrite.c.obj               88      0         0      
       ltoa.c.obj                    84      0         0      
       atoi.c.obj                    76      0         0      
       fflush.c.obj                  76      0         0      
       fd_toi_t2.asm.obj             72      0         0      
       autoinit.c.obj                68      0         0      
       hostclose.c.obj               68      0         0      
       hostunlink.c.obj              68      0         0      
       boot_cortex_m.c.obj           56      0         0      
       fs_tod_t2.asm.obj             56      0         0      
       strncpy.c.obj                 54      0         0      
       fopen.c.obj                   52      0         0      
       i_tofd_t2.asm.obj             46      0         0      
       unlink.c.obj                  44      0         0      
       lseek.c.obj                   40      0         0      
       memchr.c.obj                  32      0         0      
       memccpy.c.obj                 28      0         0      
       strcmp.c.obj                  24      0         0      
       strchr.c.obj                  22      0         0      
       s_copysign.c.obj              20      0         0      
       strcpy.c.obj                  20      0         0      
       strlen.c.obj                  20      0         0      
       _lock.c.obj                   2       0         16     
       copy_zero_init.c.obj          18      0         0      
       wcslen.c.obj                  18      0         0      
       errno.c.obj                   8       0         8      
       copy_decompress_none.c.obj    14      0         0      
       pre_init.c.obj                4       0         0      
       div0.asm.obj                  2       0         0      
    +--+-----------------------------+-------+---------+---------+
       Total:                        10703   257       1896   
                                                              
       Heap:                         0       0         2048   
       Stack:                        0       0         1024   
       Linker Generated:             0       101       0      
    +--+-----------------------------+-------+---------+---------+
       Grand Total:                  12649   586       4984   


LINKER GENERATED COPY TABLES

__TI_cinit_table @ 000033b8 records: 2, size/record: 8, table size: 16
	.data: load addr=00003360, load size=00000041 bytes, run addr=20000400, run size=000001f4 bytes, compression=lzss
	.bss: load addr=000033b0, load size=00000008 bytes, run addr=200005f4, run size=000001c8 bytes, compression=zero_init


LINKER GENERATED HANDLER TABLE

__TI_handler_table @ 000033a4 records: 3, size/record: 4, table size: 12
	index: 0, handler: __TI_decompress_lzss
	index: 1, handler: __TI_decompress_none
	index: 2, handler: __TI_zero_init


GLOBAL SYMBOLS: SORTED ALPHABETICALLY BY Name 

address   name                           
-------   ----                           
00003241  ADC14_IRQHandler               
00003241  AES256_IRQHandler              
00003241  BusFault_Handler               
00003259  C$$EXIT                        
00002f07  C$$IO$$                        
00003241  COMP_E0_IRQHandler             
00003241  COMP_E1_IRQHandler             
00003241  CS_IRQHandler                  
00003241  DMA_ERR_IRQHandler             
00003241  DMA_INT0_IRQHandler            
00003241  DMA_INT1_IRQHandler            
00003241  DMA_INT2_IRQHandler            
00003241  DMA_INT3_IRQHandler            
00003241  DebugMon_Handler               
00003241  Default_Handler                
00003241  EUSCIA0_IRQHandler             
00003241  EUSCIA1_IRQHandler             
00003241  EUSCIA2_IRQHandler             
00003241  EUSCIA3_IRQHandler             
00003241  EUSCIB0_IRQHandler             
00003241  EUSCIB1_IRQHandler             
00003241  EUSCIB2_IRQHandler             
00003241  EUSCIB3_IRQHandler             
00003241  FLCTL_IRQHandler               
00003241  FPU_IRQHandler                 
00002d4d  HOSTclose                      
000026f1  HOSTlseek                      
000029bd  HOSTopen                       
00002a79  HOSTread                       
00002759  HOSTrename                     
00002d91  HOSTunlink                     
00002ad1  HOSTwrite                      
00003241  HardFault_Handler              
00000cc7  KeyPad                         
00003241  MemManage_Handler              
00003241  NMI_Handler                    
00003241  PCM_IRQHandler                 
00003241  PORT1_IRQHandler               
00003241  PORT2_IRQHandler               
00003241  PORT3_IRQHandler               
00003241  PORT4_IRQHandler               
00003241  PORT5_IRQHandler               
00003241  PORT6_IRQHandler               
00003241  PSS_IRQHandler                 
00003241  PendSV_Handler                 
00003241  RTC_C_IRQHandler               
00003235  Reset_Handler                  
00003241  SVC_Handler                    
00000ed1  SetupMotor                     
00000b45  StandardPins                   
00000ca5  SysTick_DB                     
00003241  SysTick_Handler                
200005f0  SystemCoreClock                
00000f9d  SystemCoreClockUpdate          
00001215  SystemInit                     
00003241  T32_INT1_IRQHandler            
00003241  T32_INT2_IRQHandler            
00003241  T32_INTC_IRQHandler            
00003241  TA0_0_IRQHandler               
00003241  TA0_N_IRQHandler               
00003241  TA1_0_IRQHandler               
00003241  TA1_N_IRQHandler               
00003241  TA2_0_IRQHandler               
00003241  TA2_N_IRQHandler               
00003241  TA3_0_IRQHandler               
00003241  TA3_N_IRQHandler               
00003241  UsageFault_Handler             
4000480c  WDTCTL_SYM                     
00003241  WDT_A_IRQHandler               
200005f4  __CIOBUF_                      
20010000  __STACK_END                    
00000200  __STACK_SIZE                   
00000400  __SYSMEM_SIZE                  
000033b8  __TI_CINIT_Base                
000033c8  __TI_CINIT_Limit               
000033a4  __TI_Handler_Table_Base        
000033b0  __TI_Handler_Table_Limit       
00002dd5  __TI_auto_init_nobinit_nopinit 
00002ff1  __TI_cleanup                   
200005c8  __TI_cleanup_ptr               
000025a1  __TI_closefile                 
000027c1  __TI_decompress_lzss           
00003227  __TI_decompress_none           
00002c25  __TI_doflush                   
200005cc  __TI_dtors_ptr                 
200005d0  __TI_enable_exit_profile_output
200005b8  __TI_ft_end                    
ffffffff  __TI_pprof_out_hndl            
000000e5  __TI_printfi                   
ffffffff  __TI_prof_data_size            
ffffffff  __TI_prof_data_start           
00003025  __TI_readmsg                   
00000000  __TI_static_base__             
20000714  __TI_tmpnams                   
00002ed9  __TI_writemsg                  
00002959  __TI_wrt_ok                    
00003203  __TI_zero_init_nomemset        
000023a1  __aeabi_cdcmpeq                
000023a1  __aeabi_cdcmple                
00002427  __aeabi_cdrcmple               
00002683  __aeabi_d2f                    
00002d05  __aeabi_d2iz                   
0000171b  __aeabi_dadd                   
00001a05  __aeabi_ddiv                   
00001e81  __aeabi_dmul                   
00001711  __aeabi_dsub                   
00003245  __aeabi_errno_addr             
00002f81  __aeabi_f2d                    
00003089  __aeabi_i2d                    
000018c7  __aeabi_idiv0                  
000018c7  __aeabi_ldiv0                  
000024ad  __aeabi_memclr                 
000024ad  __aeabi_memclr4                
000024ad  __aeabi_memclr8                
000021e3  __aeabi_memcpy                 
000021e3  __aeabi_memcpy4                
000021e3  __aeabi_memcpy8                
000024af  __aeabi_memset                 
000024af  __aeabi_memset4                
000024af  __aeabi_memset8                
200005c4  __aeabi_stderr                 
200005bc  __aeabi_stdin                  
200005c0  __aeabi_stdout                 
0000227f  __aeabi_uldivmod               
ffffffff  __binit__                      
ffffffff  __c_args__                     
UNDEFED   __mpu_init                     
2000fe00  __stack                        
00002f11  _c_int00_noargs                
0000325c  _ctypes_                       
200004f0  _device                        
20000400  _ftable                        
200005e0  _lock                          
00000b43  _nop                           
20000568  _stream                        
20000000  _sys_memory                    
UNDEFED   _system_post_cinit             
00003255  _system_pre_init               
200005e4  _unlock                        
00003259  abort                          
00002c71  atoi                           
ffffffff  binit                          
00002a1d  close                          
000031c7  copysign                       
000031c7  copysignl                      
200005e8  dutycycle                      
200005ec  errno                          
00002cbd  exit                           
00003059  finddevice                     
00002315  fputc                          
00001c5d  fputs                          
00002059  free                           
00002891  frexp                          
00002891  frexpl                         
000028f5  fseek                          
UNDEFED   getKeypress                    
00002e19  getdevice                      
00000000  interruptVectors               
00001d71  ldexp                          
00001d71  ldexpl                         
000030e5  lseek                          
00002b7f  ltoa                           
00000e4f  main                           
00002529  malloc                         
0000317d  memccpy                        
0000315d  memchr                         
000021e3  memcpy                         
000024b5  memset                         
00002f49  minit                          
200007b4  parmbuf                        
00002829  printf                         
00002315  putc                           
000030b9  remove                         
00001d71  scalbn                         
00001d71  scalbnl                        
UNDEFED   setupKeypad                    
00001f7d  setvbuf                        
000031b1  strchr                         
00003199  strcmp                         
000031db  strcpy                         
000031ef  strlen                         
00002fb9  strncpy                        
000030b9  unlink                         
00003215  wcslen                         
00003135  write                          


GLOBAL SYMBOLS: SORTED BY Symbol Address 

address   name                           
-------   ----                           
00000000  __TI_static_base__             
00000000  interruptVectors               
000000e5  __TI_printfi                   
00000200  __STACK_SIZE                   
00000400  __SYSMEM_SIZE                  
00000b43  _nop                           
00000b45  StandardPins                   
00000ca5  SysTick_DB                     
00000cc7  KeyPad                         
00000e4f  main                           
00000ed1  SetupMotor                     
00000f9d  SystemCoreClockUpdate          
00001215  SystemInit                     
00001711  __aeabi_dsub                   
0000171b  __aeabi_dadd                   
000018c7  __aeabi_idiv0                  
000018c7  __aeabi_ldiv0                  
00001a05  __aeabi_ddiv                   
00001c5d  fputs                          
00001d71  ldexp                          
00001d71  ldexpl                         
00001d71  scalbn                         
00001d71  scalbnl                        
00001e81  __aeabi_dmul                   
00001f7d  setvbuf                        
00002059  free                           
000021e3  __aeabi_memcpy                 
000021e3  __aeabi_memcpy4                
000021e3  __aeabi_memcpy8                
000021e3  memcpy                         
0000227f  __aeabi_uldivmod               
00002315  fputc                          
00002315  putc                           
000023a1  __aeabi_cdcmpeq                
000023a1  __aeabi_cdcmple                
00002427  __aeabi_cdrcmple               
000024ad  __aeabi_memclr                 
000024ad  __aeabi_memclr4                
000024ad  __aeabi_memclr8                
000024af  __aeabi_memset                 
000024af  __aeabi_memset4                
000024af  __aeabi_memset8                
000024b5  memset                         
00002529  malloc                         
000025a1  __TI_closefile                 
00002683  __aeabi_d2f                    
000026f1  HOSTlseek                      
00002759  HOSTrename                     
000027c1  __TI_decompress_lzss           
00002829  printf                         
00002891  frexp                          
00002891  frexpl                         
000028f5  fseek                          
00002959  __TI_wrt_ok                    
000029bd  HOSTopen                       
00002a1d  close                          
00002a79  HOSTread                       
00002ad1  HOSTwrite                      
00002b7f  ltoa                           
00002c25  __TI_doflush                   
00002c71  atoi                           
00002cbd  exit                           
00002d05  __aeabi_d2iz                   
00002d4d  HOSTclose                      
00002d91  HOSTunlink                     
00002dd5  __TI_auto_init_nobinit_nopinit 
00002e19  getdevice                      
00002ed9  __TI_writemsg                  
00002f07  C$$IO$$                        
00002f11  _c_int00_noargs                
00002f49  minit                          
00002f81  __aeabi_f2d                    
00002fb9  strncpy                        
00002ff1  __TI_cleanup                   
00003025  __TI_readmsg                   
00003059  finddevice                     
00003089  __aeabi_i2d                    
000030b9  remove                         
000030b9  unlink                         
000030e5  lseek                          
00003135  write                          
0000315d  memchr                         
0000317d  memccpy                        
00003199  strcmp                         
000031b1  strchr                         
000031c7  copysign                       
000031c7  copysignl                      
000031db  strcpy                         
000031ef  strlen                         
00003203  __TI_zero_init_nomemset        
00003215  wcslen                         
00003227  __TI_decompress_none           
00003235  Reset_Handler                  
00003241  ADC14_IRQHandler               
00003241  AES256_IRQHandler              
00003241  BusFault_Handler               
00003241  COMP_E0_IRQHandler             
00003241  COMP_E1_IRQHandler             
00003241  CS_IRQHandler                  
00003241  DMA_ERR_IRQHandler             
00003241  DMA_INT0_IRQHandler            
00003241  DMA_INT1_IRQHandler            
00003241  DMA_INT2_IRQHandler            
00003241  DMA_INT3_IRQHandler            
00003241  DebugMon_Handler               
00003241  Default_Handler                
00003241  EUSCIA0_IRQHandler             
00003241  EUSCIA1_IRQHandler             
00003241  EUSCIA2_IRQHandler             
00003241  EUSCIA3_IRQHandler             
00003241  EUSCIB0_IRQHandler             
00003241  EUSCIB1_IRQHandler             
00003241  EUSCIB2_IRQHandler             
00003241  EUSCIB3_IRQHandler             
00003241  FLCTL_IRQHandler               
00003241  FPU_IRQHandler                 
00003241  HardFault_Handler              
00003241  MemManage_Handler              
00003241  NMI_Handler                    
00003241  PCM_IRQHandler                 
00003241  PORT1_IRQHandler               
00003241  PORT2_IRQHandler               
00003241  PORT3_IRQHandler               
00003241  PORT4_IRQHandler               
00003241  PORT5_IRQHandler               
00003241  PORT6_IRQHandler               
00003241  PSS_IRQHandler                 
00003241  PendSV_Handler                 
00003241  RTC_C_IRQHandler               
00003241  SVC_Handler                    
00003241  SysTick_Handler                
00003241  T32_INT1_IRQHandler            
00003241  T32_INT2_IRQHandler            
00003241  T32_INTC_IRQHandler            
00003241  TA0_0_IRQHandler               
00003241  TA0_N_IRQHandler               
00003241  TA1_0_IRQHandler               
00003241  TA1_N_IRQHandler               
00003241  TA2_0_IRQHandler               
00003241  TA2_N_IRQHandler               
00003241  TA3_0_IRQHandler               
00003241  TA3_N_IRQHandler               
00003241  UsageFault_Handler             
00003241  WDT_A_IRQHandler               
00003245  __aeabi_errno_addr             
00003255  _system_pre_init               
00003259  C$$EXIT                        
00003259  abort                          
0000325c  _ctypes_                       
000033a4  __TI_Handler_Table_Base        
000033b0  __TI_Handler_Table_Limit       
000033b8  __TI_CINIT_Base                
000033c8  __TI_CINIT_Limit               
20000000  _sys_memory                    
20000400  _ftable                        
200004f0  _device                        
20000568  _stream                        
200005b8  __TI_ft_end                    
200005bc  __aeabi_stdin                  
200005c0  __aeabi_stdout                 
200005c4  __aeabi_stderr                 
200005c8  __TI_cleanup_ptr               
200005cc  __TI_dtors_ptr                 
200005d0  __TI_enable_exit_profile_output
200005e0  _lock                          
200005e4  _unlock                        
200005e8  dutycycle                      
200005ec  errno                          
200005f0  SystemCoreClock                
200005f4  __CIOBUF_                      
20000714  __TI_tmpnams                   
200007b4  parmbuf                        
2000fe00  __stack                        
20010000  __STACK_END                    
4000480c  WDTCTL_SYM                     
ffffffff  __TI_pprof_out_hndl            
ffffffff  __TI_prof_data_size            
ffffffff  __TI_prof_data_start           
ffffffff  __binit__                      
ffffffff  __c_args__                     
ffffffff  binit                          
UNDEFED   __mpu_init                     
UNDEFED   _system_post_cinit             
UNDEFED   getKeypress                    
UNDEFED   setupKeypad                    

[185 symbols]
